:100000000C9466000C948E000C948E000C948E0060
:100010000C948E000C948E000C948E000C948E0028
:100020000C948E000C948E000C948E000C948E0018
:100030000C948E000C948E000C948E000C948E0008
:100040000C9431060C948E000C94A1060C947B0643
:100050000C948E000C948E000C948E000C948E00E8
:100060000C948E000C948E00CE0ACE0AB50ACE0AED
:10007000F30ACE0AD10AE80A000000002400270093
:100080002A0000000000250028002B0004040404BE
:100090000404040402020202020203030303030332
:1000A000010204081020408001020408102001020F
:1000B00004081020000000080002010000030407EB
:1000C0000000000000000000D306200B11241FBE1A
:1000D000CFEFD8E0DEBFCDBF22E0A6E2B2E001C0A4
:1000E0001D92A33EB207E1F712E0A0E0B1E0ECEC14
:1000F000FDE102C005900D92A632B107D9F710E0DC
:10010000C5E6D0E004C02197FE010E94C30CC436AE
:10011000D107C9F70E9447070C94D90E0C94000030
:1001200090E0FC01EC54FF4F2491FC01E056FF4F9E
:100130003491FC01E457FF4FE491EE2309F43CC0F5
:10014000222339F1233091F038F42130A9F0223004
:1001500001F584B58F7D12C0273091F02830A1F0D1
:100160002430B9F4809180008F7D03C0809180009D
:100170008F77809380000DC084B58F7784BD09C0D0
:100180008091B0008F7703C08091B0008F7D809305
:10019000B000F0E0EE0FFF1FEE57FF4FA591B491B6
:1001A0009FB7F894611104C08C913095382302C038
:1001B000EC913E2B3C939FBF0895CF93DF9390E04B
:1001C000FC01E056FF4F2491FC01E457FF4F84915E
:1001D000882361F190E0880F991FFC01E858FF4FD8
:1001E000C591D491FC01EE57FF4FA591B4916111D7
:1001F00009C09FB7F8948881209582238883EC9169
:100200002E230BC0623061F49FB7F8948881322F9F
:10021000309583238883EC912E2B2C939FBF06C0AF
:100220008FB7F894E8812E2B28838FBFDF91CF9171
:1002300008951F93CF93DF93182FEB0161E00E9485
:10024000DD00209711F460E004C0CF3FD10539F400
:1002500061E0812FDF91CF911F910C949000E12FED
:10026000F0E0EC54FF4FE491E330F9F048F4E13072
:10027000B9F0E230A1F584B5806284BDC8BD34C058
:10028000E730E9F0E83019F1E43049F58091800079
:10029000806280938000D0938B00C0938A0024C03A
:1002A00084B5806884BDC7BD1FC080918000806810
:1002B00080938000D0938900C093880015C08091FE
:1002C000B00080688093B000C093B3000DC08091EF
:1002D000B00080628093B000C093B40005C0C03805
:1002E000D1050CF0B5CFAFCFDF91CF911F9108951D
:1002F0008E3008F08E508770806480937C008091EF
:100300007A00806480937A0080917A0086FDFCCF29
:10031000809178002091790090E0922B08953FB76A
:10032000F8948091380290913902A0913A02B091EC
:100330003B0226B5A89B05C02F3F19F00196A11DD1
:10034000B11D3FBFBA2FA92F982F8827820F911D6B
:10035000A11DB11DBC01CD0142E0660F771F881FB2
:10036000991F4A95D1F708958F929F92AF92BF92AD
:10037000CF92DF92EF92FF926B017C010E948F017E
:100380004B015C01C114D104E104F104F1F00E94BD
:100390008F01DC01CB0188199909AA09BB09883EA4
:1003A0009340A105B10570F321E0C21AD108E1081C
:1003B000F10888EE880E83E0981EA11CB11CC114C0
:1003C000D104E104F10419F7DDCFFF90EF90DF9045
:1003D000CF90BF90AF909F908F900895CF92DF9273
:1003E000EF92FF920F931F93CF93DF936C017A01EB
:1003F0008B01C0E0D0E0CE15DF0581F0D8016D9112
:100400008D01D601ED91FC910190F081E02DC601A6
:100410000995892B11F02196EECF7E01C701DF915E
:10042000CF911F910F91FF90EF90DF90CF900895A3
:10043000089580E090E00895FC01538D448D252FB0
:1004400030E0842F90E0821B930B541710F0CF966E
:10045000089501970895FC01918D828D981761F0A0
:10046000828DDF01A80FB11D5D968C91928D9F5FEB
:100470009F73928F90E008958FEF9FEF0895FC0196
:10048000918D828D981731F0828DE80FF11D858D49
:1004900090E008958FEF9FEF0895FC01918D228DDC
:1004A000892F90E0805C9F4F821B91098F73992761
:1004B00008958CE392E00E944D0221E0892B09F41B
:1004C00020E0822F0895FC01848DDF01A80FB11D6B
:1004D000A35ABF4F2C91848D90E001968F7399277A
:1004E000848FA689B7892C93A089B1898C91837058
:1004F00080648C93938D848D981306C00288F38951
:10050000E02D80818F7D80830895EF92FF920F937D
:100510001F93CF93DF93EC0181E0888F9B8D8C8DAF
:10052000981305C0E889F989808185FD26C0F62EDB
:100530000B8D10E00F5F1F4F0F731127E02E8C8D76
:10054000E8120CC00FB607FCFACFE889F989808160
:1005500085FFF5CFCE010E946302F1CF8B8DFE01A6
:10056000E80FF11DE35AFF4FF0829FB7F8940B8F0D
:10057000EA89FB89808180620AC09FB7F894EE897E
:10058000FF896083E889F989808183708064808332
:100590009FBF81E090E0DF91CF911F910F91FF907D
:1005A000EF900895CF93DF93EC01888D8823C9F0F5
:1005B000EA89FB89808185FD05C0A889B9898C916C
:1005C00086FD0FC00FB607FCF5CF808185FFF2CF07
:1005D000A889B9898C9185FFEDCFCE010E94630275
:1005E000E7CFDF91CF910895CF93DF93EC0161E0E6
:1005F00086E00E94900060E088E00E94900060E049
:1006000087E00E94900061E089E00E949000BE01B6
:10061000DD0F880B990B0E94B40160E086E00E9418
:10062000900060E088E00E94900060E087E00E9417
:10063000900060E089E0DF91CF910C949000CF931F
:10064000DF93EC0161E087E00E94900060E086E0CB
:100650000E94900060E089E00E94900061E088E0E4
:100660000E949000BE01DD0F880B990B0E94B4011F
:1006700060E086E00E94900060E088E00E949000C8
:1006800060E087E00E94900060E089E0DF91CF9118
:100690000C949000CF93DF93EC0161E087E00E941F
:1006A000900061E089E00E949000BE01DD0F880BA0
:1006B000990B0E94B40160E087E00E94900060E026
:1006C00089E0DF91CF910C949000CF93DF93EC0100
:1006D00061E086E00E94900061E088E00E94900066
:1006E000BE01DD0F880B990B0E94B40160E086E02B
:1006F0000E94900060E088E0DF91CF910C94900020
:10070000CF92DF92EF92FF920F931F93CF93DF93DD
:1007100082E10E9478016C01909331028093300253
:1007200081E10E9478017C0190932F0280932E0238
:1007300083E10E9478018C0190932D0280932C021A
:100740008FE00E947801EC0190932B0280932A02A3
:100750008EE00E94780120910801309109012C154A
:100760003D053CF421E030E030933102209330022B
:1007700004C0109231021092300220910601309193
:1007800007012E153F053CF421E030E030932F02A5
:1007900020932E0204C010922F0210922E0220915C
:1007A000040130910501201731073CF421E030E0CD
:1007B00030932D0220932C0204C010922D0210922F
:1007C0002C0220910201309103012C173D073CF4CB
:1007D00021E030E030932B0220932A0204C01092D3
:1007E0002B0210922A02209100013091010128175A
:1007F00039073CF481E090E090932902809328022D
:1008000004C01092290210922802DF91CF911F910B
:100810000F91FF90EF90DF90CF900895009769F0CF
:10082000FC0101900020E9F73197AF01481B590BFB
:10083000BC018CE392E00C94EE0180E090E008951E
:10084000CF93DF930E940E04EC0182E291E00E94BC
:100850000E048C0F9D1FDF91CF91089580E991E0E8
:100860000E94F4028AEF90E00E9465038EE591E019
:100870000E94F4020E94800384E190E00E94F4024E
:1008800085E291E00E94200480912C0290912D023B
:10089000892B81F308958F929F92AF92BF920F930D
:1008A0001F93CF93DF93CDB7DEB7A1970FB6F89420
:1008B000DEBF0FBECDBF19A2423008F44AE08E0160
:1008C0000F5D1F4F842E912CA12CB12CA5019401FA
:1008D0000E94A10CE62FB901CA0101501109EA30AA
:1008E00014F4E05D01C0E95CD801EC93232B242BC8
:1008F000252B61F7C8010E940E04A1960FB6F8944B
:10090000DEBF0FBECDBFDF91CF911F910F91BF9082
:10091000AF909F908F900895CF92DF92EF92FF92C9
:10092000CF93DF936B017C016DE28CE392E00E9438
:100930008502EC0166277727CB016C197D098E09AA
:100940009F094AE00E944B048C0F9D1FDF91CF91BD
:10095000FF90EF90DF90CF9008950C940E04BC01AF
:10096000990F880B990B97FD0C948C044AE00C941A
:100970004B04CF93DF930E94AF04EC0182E291E03D
:100980000E940E048C0F9D1FDF91CF910895CF928E
:10099000DF92EF92FF920F931F93CF93DF93CDB728
:1009A000DEB7C456D1090FB6F894DEBF0FBECDBF77
:1009B00083E790E00E944A03CE0101967C016E011C
:1009C00095E6C90ED11C87010E94800380913002F8
:1009D00090913102F8019183808380912E02909151
:1009E0002F029383828380912C0290912D02958314
:1009F000848380912A0290912B0297838683809131
:100A0000280290912902918780878DE290E00E94D0
:100A10006503065F1F4F0C151D05B1F68701F80130
:100A2000808191810E94AF0484E391E00E94AD0433
:100A3000F801828193810E94AF0484E391E00E94D7
:100A4000AD04F801848195810E94AF0484E391E0B4
:100A50000E94AD04F801868197810E94AF0484E36F
:100A600091E00E94AD04F801808591850E94B9044F
:100A7000065F1F4F0C151D0591F660E070E040E029
:100A800050E0F70180819181680F791F8085918501
:100A9000480F591FFAE0EF0EF11CEC14FD0489F722
:100AA0002D962EAD3FAD2D9767968EAD9FAD679776
:100AB000820F931FA1962EAD3FADA197820F931F7A
:100AC0006230710574F0423051059CF01816190619
:100AD0001CF481E090E02EC0009711F582E090E0D8
:100AE00029C0423051059CF0029744F483E090E025
:100AF00021C0009731F484E090E01CC085E090E0D4
:100B000019C01816190664F486E090E013C0672B2C
:100B1000A9F4452B99F4892B89F487E090E00AC069
:100B2000693071055CF04930510544F0029734F0AA
:100B300088E090E090932702809326028BE391E077
:100B40000E9420048091260290912702CC59DF4F09
:100B50000FB6F894DEBF0FBECDBFDF91CF911F91CE
:100B60000F91FF90EF90DF90CF900C94B904CF934A
:100B7000DF93EC018091D9029091DA02009739F06D
:100B80002091DB023091DC022C173D07B8F4BE0146
:100B90006F5F7F4F0E94FE0D009791F09093DA02F5
:100BA0008093D902D093DC02C093DB022091DD0256
:100BB0003091DE02232B11F4FC01108281E001C090
:100BC00080E0DF91CF910895EF92FF920F931F93F2
:100BD000CF93DF9300D0CDB7DEB7EE24E3948CE360
:100BE00092E00E944D02892B59F18CE392E00E9421
:100BF0002B02F82E89831A820091DD021091DE0209
:100C00000F5F1F4FC8010E94B705882399F02091FC
:100C1000D9023091DA028091DD029091DE02BE01AC
:100C20006F5F7F4F820F931F0E94D20E1093DE02E0
:100C30000093DD028AE0F812D2CFE0923202CFCFE9
:100C40000F900F90DF91CF911F910F91FF90EF9038
:100C500008950E94590281110C94E40508950E94A0
:100C6000C40E1F920F920FB60F9211242F933F9331
:100C70008F939F93AF93BF938091340290913502ED
:100C8000A0913602B09137023091330223E0230F56
:100C90002D3720F40196A11DB11D05C026E8230FB4
:100CA0000296A11DB11D20933302809334029093CC
:100CB0003502A0933602B0933702809138029091AA
:100CC0003902A0913A02B0913B020196A11DB11DDB
:100CD0008093380290933902A0933A02B0933B027A
:100CE000BF91AF919F918F913F912F910F900FBE28
:100CF0000F901F9018951F920F920FB60F9211240C
:100D00002F933F934F935F936F937F938F939F9313
:100D1000AF93BF93EF93FF938CE392E00E94630243
:100D2000FF91EF91BF91AF919F918F917F916F91C3
:100D30005F914F913F912F910F900FBE0F901F9099
:100D400018951F920F920FB60F9211242F938F9325
:100D50009F93EF93FF93E0914C02F0914D028081BD
:100D6000E0915202F091530282FD12C09081809175
:100D700055028F5F8F7320915602821751F0E091D8
:100D80005502F0E0E45CFD4F958F8093550201C061
:100D90008081FF91EF919F918F912F910F900FBEC6
:100DA0000F901F90189510923F0210923E0288EE0D
:100DB00093E0A0E0B0E08093400290934102A093C2
:100DC0004202B093430284E191E090933D0280930C
:100DD0003C0285EC90E0909349028093480284ECB9
:100DE00090E090934B0280934A0280EC90E09093C5
:100DF0004D0280934C0281EC90E090934F028093DF
:100E00004E0282EC90E0909351028093500286EC67
:100E100090E09093530280935202109255021092E8
:100E2000560210925702109258021092DA02109253
:100E3000D9021092DC021092DB021092DE021092B4
:100E4000DD0280E090E00E94B7052091D902309148
:100E5000DA02811113C02115310519F0C9010E9470
:100E6000750D1092DA021092D9021092DE021092E1
:100E7000DD021092DC021092DB0208951092DE0275
:100E80001092DD0264E271E0C9010C94D20ECF939E
:100E9000DF93CDB7DEB7C854D1090FB6F894DEBFE3
:100EA0000FBECDBF789484B5826084BD84B5816067
:100EB00084BD85B5826085BD85B5816085BD809125
:100EC0006E00816080936E0010928100809181009D
:100ED0008260809381008091810081608093810095
:100EE000809180008160809380008091B100846057
:100EF0008093B1008091B00081608093B0008091B8
:100F00007A00846080937A0080917A008260809376
:100F10007A0080917A00816080937A0080917A00D3
:100F2000806880937A001092C100E0914C02F091A9
:100F30004D0282E08083E0914802F09149021082E4
:100F4000E0914A02F0914B028FEC808310925402A0
:100F5000E0915002F091510286E08083E0914E02D0
:100F6000F0914F02808180618083E0914E02F09188
:100F70004F02808188608083E0914E02F0914F02A1
:100F8000808180688083E0914E02F0914F028081E1
:100F90008F7D808361E085E00E94DD0061E08AE072
:100FA0000E94DD0061E086E00E94DD0061E087E0F4
:100FB0000E94DD0061E088E00E94DD0061E089E0E0
:100FC0000E94DD0061E082E00E94DD0060E08EE0D2
:100FD0000E94DD0060E08FE00E94DD0060E080E1C3
:100FE0000E94DD0060E081E10E94DD0060E082E1BE
:100FF0000E94DD0060E083E10E94DD006AEA70E0AB
:1010000085E00E94190166E970E08AE00E941901FA
:1010100081E491E00E9420041E0121E5220E311C92
:101020008AE0C82ED12C809108019091090181326B
:1010300093402CF08E010F5F1F4F780123C08091E9
:1010400006019091070181329340A4F78091040139
:1010500090910501813293406CF78091020190914B
:1010600003018132934034F7809100019091010196
:1010700081329340FCF68BE591E00E9420040EE162
:1010800010E093C182E10E9478014C0190933102FB
:101090008093300281E10E9478015C0190932F02DD
:1010A00080932E0283E10E9478013C0190932D02EF
:1010B00080932C028FE00E9478012C0190932B02E8
:1010C00080932A028EE00E947801909329028093F7
:1010D0002802D70111969C928E921396BC92AE92E2
:1010E000129715967C926E92149717965C924E9278
:1010F000169719969C938E93189762E370E080E0A0
:1011000090E00E94B401B8E0EB0EF11C2E143F04F5
:1011100009F0B8CF20E030E0E0E0F0E0E12CF12C85
:10112000A12CB12C80E090E0D8014D915C911197F9
:10113000840F951F12964D915C911397A40EB51EC6
:1011400014964D915C911597E40EF51E16964D91EF
:101150005C911797E40FF51F18964D915C911997C4
:10116000240F351F085F1F4F20163106E9F6B60120
:101170000E948D0C6D587F4F709309016093080198
:10118000C501B6010E948D0C6D587F4F7093070109
:1011900060930601C701B6010E948D0C6D587F4F08
:1011A0007093050160930401CF01B6010E948D0C7C
:1011B0006D587F4F7093030160930201C901B6011E
:1011C0000E948D0C6D587F4F709301016093000158
:1011D0002ACF8091D9029091DA02009709F4EBC0EE
:1011E0000E94260B97FFEAC00E948C0482E291E0E5
:1011F0000E940E048091D9029091DA02009709F4BE
:10120000E1C00E94260B6B017C01C601B8EECB1633
:10121000B3E0DB060CF0DAC089E691E00E9420041E
:10122000C6010E94B904C6010E94650380E090E0F7
:101230000E94B7052091D9023091DA028111F6C1DE
:101240002115310519F0C9010E94750D1092DA02BD
:101250001092D9021092DE021092DD021092DC028E
:101260001092DB021092320268EE73E080E090E0B0
:101270000E94B40182E10E94780190933102809330
:10128000300281E10E94780190932F0280932E0218
:1012900083E10E94780190932D0280932C028FE0CD
:1012A0000E94780190932B0280932A028EE00E9484
:1012B0007801909329028093280289EC91E00E94A2
:1012C000AD0480913002909131020E94AF0485ED0F
:1012D00091E00E94AD0480912E0290912F020E9415
:1012E000AF0485ED91E00E94AD0480912C029091B5
:1012F0002D020E94AF0485ED91E00E94AD04809123
:101300002A0290912B020E94AF0485ED91E00E9489
:10131000AD0480912802909129020E94AF048BEDC8
:1013200091E00E94200487EE91E00E9420040E9438
:10133000800389EC91E00E94AD048091300290918D
:1013400031020E94AF0485ED91E00E94AD048091CE
:101350002E0290912F020E94AF0485ED91E00E9431
:10136000AD0480912C0290912D020E94AF0485ED76
:1013700091E00E94AD0480912A0290912B020E947C
:10138000AF0485ED91E00E94AD0480912802909118
:1013900029020E94AF048BED91E00E94200487EEA9
:1013A00091E00E9420040E94290680913202882345
:1013B00009F45ACF0ECF60E070E0CB014AE00E9402
:1013C0004B0414CFC12CD12C76011FCFE8EECE1ADE
:1013D000E3E0DE0AF8EECF16F3E0DF0658F486E924
:1013E00091E00E942004C6010E94B904C6010E9437
:1013F0001F031CCF7C0120EDE21A27E0F20AA8EEC1
:10140000EA16A3E0FA0658F48FE291E00E94200465
:10141000C7010E94B904C7010E94F40207CF7C01F2
:10142000B8EBEB1ABBE0FB0AE8EEEE16E3E0FE06D3
:1014300058F480E791E00E942004C7010E94B9049B
:10144000C7010E944A03F2CE7C01F0EAEF1AFFE0E6
:10145000FF0A20E8E2162EE3F20608F0D2C089E780
:1014600091E00E942004C7010E94B904C701B8019D
:101470000E948D0C072E000C880B990B0E94640BA8
:101480000E94FF0B0E94160C6B01E12CF12CEC1456
:10149000FD040CF0CBCE0E94800380912A02909133
:1014A0002B020097B9F480912E0290912F020097A1
:1014B00051F58091300290913102892BB9F58091DC
:1014C000280290912902892B89F58EE190E00E94F3
:1014D000650393C0019751F580912E0290912F02E0
:1014E000892B21F58091300290913102892BF1F402
:1014F0008091280290912902892BC1F48EE190E01D
:101500000E941F037AC0019789F480913002909164
:101510003102892B59F48091280290912902892B5C
:1015200029F48EE190E00E94F40267C083E891E024
:101530000E94200464EF71E080E090E00E94B4011A
:101540000E94C70464EF71E080E090E00E94B40163
:10155000E0912602F09127023197E830F10508F07A
:1015600042C0EC5CFF4F0C94C30C8AEF90E00E94E9
:101570001F0388E790E00E9465030E94800387E1D3
:1015800090E00E941F038CE891E00E94AD048091DE
:101590002C0290912D02892B81F325C00E942E04EC
:1015A00022C00E94800384E190E00E941F038CE827
:1015B00091E00E94AD0464E170E080E090E00E9460
:1015C000B40180912C0290912D02892B51F30BC014
:1015D0008CE991E00E94AD0467EE73E080E090E05A
:1015E0000E94B401F5CF68EE73E080E090E00E94C5
:1015F000B40187EB91E00E94AD048FEFE81AF80A7E
:1016000046CF803197420CF411CE68EE73E080E053
:1016100090E00E94B4010E94C70468EE73E080E08D
:1016200090E00E94B4010E942E0400CE1092DE02CF
:101630001092DD0264E271E0C9010E94D20E12CE66
:101640008091D9029091DA020C94750D1F93FC01E0
:1016500099278827BC01E89411911032E9F31930D9
:1016600010F01E30C8F31B3251F01D3249F468945B
:1016700006C00E944D0B610F711D811D911D1191BE
:1016800010531A30B0F33EF49095809570956195A3
:101690007F4F8F4F9F4F1F910895592F482F372FFE
:1016A000262F660F771F881F991F660F771F881FC9
:1016B000991F620F731F841F951F660F771F881F66
:1016C000991F0895E89409C097FB3EF49095809582
:1016D000709561957F4F8F4F9F4F9923A9F0F92FF8
:1016E00096E9BB279395F695879577956795B79576
:1016F000F111F8CFFAF4BB0F11F460FF1BC06F5F5C
:101700007F4F8F4F9F4F16C0882311F096E911C06D
:10171000772321F09EE8872F762F05C0662371F08E
:1017200096E8862F70E060E02AF09A95660F771FA2
:10173000881FDAF7880F9695879597F9089557FDD2
:101740009058440F551F59F05F3F71F04795880F2F
:1017500097FB991F61F09F3F79F0879508951216C6
:1017600013061406551FF2CF4695F1DF08C0161672
:1017700017061806991FF1CF869571056105089423
:101780000895E894BB2766277727CB0197F908953A
:101790002F923F924F925F926F927F928F929F9281
:1017A000AF92BF92CF92DF92EF92FF920F931F936F
:1017B000CF93DF93CDB7DEB7CA1BDB0B0FB6F89420
:1017C000DEBF0FBECDBF09942A88398848885F8460
:1017D0006E847D848C849B84AA84B984C884DF80D1
:1017E000EE80FD800C811B81AA81B981CE0FD11DB5
:1017F0000FB6F894DEBF0FBECDBFED0108950E9475
:10180000750C90F09F3748F4911116F40C94C20BAC
:1018100060E070E080E89FE3089526F01B16611DEC
:10182000711D811D0C944C0C0C94670C0E941D0CB6
:101830006894B1110C94C20B08950E94A70B88F014
:101840009F5798F0B92F9927B751B0F0E1F0660F84
:10185000771F881F991F1AF0BA95C9F714C0B130C5
:1018600091F00E94C10BB1E008950C94C10B672F59
:10187000782F8827B85F39F0B93FCCF386957795F4
:101880006795B395D9F73EF49095809570956195DD
:101890007F4F8F4F9F4F0895882371F4772321F056
:1018A0009850872B762F07C0662311F499270DC017
:1018B0009051862B70E060E02AF09A95660F771FB2
:1018C000881FDAF7880F9695879597F908959F3FB7
:1018D00031F0915020F4879577956795B795880FEB
:1018E000911D9695879597F908950E94A70BA0F0F2
:1018F000BEE7B91788F4BB279F3860F41616B11DF0
:10190000672F782F8827985FF7CF8695779567950B
:10191000B11D93959639C8F3089597FB072E16F4D9
:10192000009407D077FD09D00E94C90C07FC05D0B0
:101930003EF4909581959F4F0895709561957F4FE6
:101940000895A1E21A2EAA1BBB1BFD010DC0AA1F00
:10195000BB1FEE1FFF1FA217B307E407F50720F018
:10196000A21BB30BE40BF50B661F771F881F991F93
:101970001A9469F760957095809590959B01AC01DC
:10198000BD01CF010895EE0FFF1F0590F491E02DEA
:101990000994AA1BBB1B51E107C0AA1FBB1FA617B6
:1019A000B70710F0A61BB70B881F991F5A95A9F708
:1019B00080959095BC01CD0108950F931F93CF930F
:1019C000DF938230910510F482E090E0E091E10233
:1019D000F091E20220E030E0A0E0B0E0309719F1B1
:1019E000408151810281138148175907C8F084173B
:1019F000950769F4109731F012960C93129713968D
:101A00001C9327C00093E1021093E20222C021152B
:101A1000310519F04217530718F49A01BD01EF017F
:101A2000DF01F801DBCF21153105F9F0281B390B57
:101A30002430310580F48A819B816115710521F084
:101A4000FB019383828304C09093E2028093E102BE
:101A5000FE01329644C0FE01E20FF31F8193919381
:101A600022503109398328833AC02091DF02309116
:101A7000E002232B41F420910C0130910D013093B1
:101A8000E0022093DF0220910A0130910B01211521
:101A9000310541F42DB73EB740910E0150910F0131
:101AA000241B350BE091DF02F091E002E217F3070F
:101AB000A0F42E1B3F0B2817390778F0AC014E5FBE
:101AC0005F4F2417350748F04E0F5F1F5093E00219
:101AD0004093DF028193919302C0E0E0F0E0CF01F8
:101AE000DF91CF911F910F910895CF93DF930097CE
:101AF00009F481C0FC01329713821282A091E102A5
:101B0000B091E202109781F420813181820F931FFE
:101B10002091DF023091E0022817390751F5F09348
:101B2000E002E093DF0267C0ED0120E030E0CE1775
:101B3000DF0740F44A815B819E0141155105F1F0B8
:101B4000EA01F5CFD383C28340815181840F951F71
:101B5000C817D90759F488819981840F951F029677
:101B6000918380838A819B819383828321153105B0
:101B700029F4F093E202E093E1023DC0E901FB8326
:101B8000EA8349915991C40FD51FEC17FD0761F401
:101B900080819181840F951F0296E9019983888342
:101BA000828193819B838A83E0E0F0E012968D919D
:101BB0009C911397009719F0FD01DC01F7CF8D91EF
:101BC0009C9111979D012E5F3F4F820F931F209193
:101BD000DF023091E0022817390769F4309729F4C1
:101BE0001092E2021092E10202C013821282B093BC
:101BF000E002A093DF02DF91CF910895A0E0B0E072
:101C0000E4E0FEE00C94CC0BEC01009721F4CB0156
:101C10000E94DD0CB4C0FC01E60FF71F9C012250AE
:101C20003109E217F30708F4A8C0D9010D911C91FE
:101C3000119706171707B0F00530110508F49BC07F
:101C4000C80104978617970708F495C00250110938
:101C5000061B170B019311936D937C93CF010E9488
:101C6000750D89C05B01A01AB10A4C01800E911E4E
:101C7000A091E102B091E202612C712CE12CF12CD7
:101C8000109709F446C08D919C911197A815B9053C
:101C9000B1F56C0142E0C40ED11CCA14DB0478F12A
:101CA0004C018A189B08640142E0C40ED11C1296B4
:101CB000BC9012971396AC91B5E0CB16D10440F0CE
:101CC000B282A38391828082D9016D937C9309C0F3
:101CD0000E5F1F4F800F911FF90191838083EB2DC1
:101CE000FA2FE114F10431F0D7011396FC93EE932F
:101CF000129741C0F093E202E093E1023CC0681603
:101D0000790608F43C017D0112960D90BC91A02D3E
:101D1000B7CF8091DF029091E00288169906E1F436
:101D200066167706C8F480910A0190910B0100971E
:101D300041F48DB79EB740910E0150910F01841B65
:101D4000950BE817F907C8F4F093E002E093DF027F
:101D5000F901718360830FC0CB010E94DD0C7C010F
:101D6000009759F0A801BE010E94C90ECE010E9441
:101D7000750DC70104C0CE0102C080E090E0CDB770
:101D8000DEB7EEE00C94E80B81E090E0F8940C9460
:101D9000D90EFB01DC0102C001900D924150504070
:101DA000D8F70895FB01DC0101900D920020E1F7C6
:101DB000089510E0C5E6D0E004C0FE010E94C30C07
:0C1DC0002196C636D107C9F7F894FFCF72
:101DCC00FF03FF03FF03FF03FF030000E302800098
:101DDC00000000008502EE011C02D2024D022B0213
:101DEC003F020D0A005F74726F6368652077206C88
:101DFC0065776F0020207C7C2020004D4F44453AB5
:101E0C000068656A2C20637A656B616A206E6120BC
:101E1C006B616C69627261636A6500736B616C699A
:101E2C0062726F77616E6F210070726F73746F00E6
:101E3C00636F66616A32333300666F6C6C6F7769FF
:101E4C006E67006465637964756A65005F74726FB0
:101E5C00636865207720707261776F004855524136
:101E6C0020444F4A454348414C454D20444F204B5C
:101E7C004FC5834341210077796B6F6E61C58265D5
:101E8C006D206D616E657772004C455759203E2070
:101E9C003E2020200020207C7C200020203C203C68
:101EAC00205052415759005F5F5F5F5F5F5F5F5F1C
:101EBC005F5F5F5F5F5F5F5F5F5F5F5F5F5F5F5F26
:101ECC005F5F5F5F5F5F5F5F5F5F5F5F5F5F5F5F16
:101EDC005F5F5F5F5F5F5F5F5F5F5F5F5F5F5F5F06
:061EEC005F5F5F5F000074
:00000001FF
